01REMESSA01       COBRANCA071000513649        VITALCRED MEIOS DE PAGAMENTO S341  BANCO ITAU SA240818                                                                                                                                                                                                                                                                                                      000001
10208022117000188071000513649    0000                        1000001230000000000000109                     I01       12323081800000000010003410000001A230818000000000000000000000000000000000000000000000000000000000000000299999999999999José Silveira Nomecommuitoscar          LOGRADOURO_DO_SACADO que possui um nome Jardim Botan00000099 Ribeirão PretoSCVITALCRED MEIOS DE PAGAMENTO S    00000000 000001
10208022117000188071000513649    0000                        2000001230000000000000109                     I01       12323081800000000010003410000001A230818000000000000000000000000000000000000000000000000000000000000000299999999999999             JOAO DEMONSTRACAO          LOGRADOURO_DO_SACADO 1890 Bloco 9 - AptoJardim Botan88888888 Ribeirão PretoSCVITALCRED MEIOS DE PAGAMENTO S    00000000 000001
10208022117000188071000513649    0000                        3000001230000000000000109                     I01       12323081800000000010303410000001A230818000000000000000000000000000000000000000000000000000000000000000299999999999999             JOAO DEMONSTRACAO                         LOGRADOURO_DO_SACADO 1890Jardim Botan88888888 Ribeirão PretoSCVITALCRED MEIOS DE PAGAMENTO S    00000000 000001
10208022117000188071000513649    0000                        4123456780000000000000109                     I01  1234567823081800000000032153410000001A230818000000000000000000000000000000000000000000000000000000000000000299999999999999             JOAO DEMONSTRACAO                         LOGRADOURO_DO_SACADO 1890Jardim Botan88888888 Ribeirão PretoSCVITALCRED MEIOS DE PAGAMENTO S    00000000 000001
10208022117000188071000513649    0000                        5000001230000000000000109                     I01       12323081800000001200003410000001A260818000000000000000000000000000000000000000000000000000000000000000223635681000190             JOAO DEMONSTRACAO                         LOGRADOURO_DO_SACADO 1890Jardim Botan88888888 Ribeirão PretoSCVITALCRED MEIOS DE PAGAMENTO S    00000000 000001
9                                                                                                                                                                                                                                                                                                                                             
